{
  "contractName": "StarNotary",
  "abi": [
    {
      "constant": true,
      "inputs": [
        {
          "name": "interfaceId",
          "type": "bytes4"
        }
      ],
      "name": "supportsInterface",
      "outputs": [
        {
          "name": "",
          "type": "bool"
        }
      ],
      "payable": false,
      "stateMutability": "view",
      "type": "function"
    },
    {
      "constant": true,
      "inputs": [
        {
          "name": "",
          "type": "uint256"
        }
      ],
      "name": "starsForSale",
      "outputs": [
        {
          "name": "",
          "type": "uint256"
        }
      ],
      "payable": false,
      "stateMutability": "view",
      "type": "function"
    },
    {
      "constant": true,
      "inputs": [
        {
          "name": "tokenId",
          "type": "uint256"
        }
      ],
      "name": "getApproved",
      "outputs": [
        {
          "name": "",
          "type": "address"
        }
      ],
      "payable": false,
      "stateMutability": "view",
      "type": "function"
    },
    {
      "constant": false,
      "inputs": [
        {
          "name": "to",
          "type": "address"
        },
        {
          "name": "tokenId",
          "type": "uint256"
        }
      ],
      "name": "approve",
      "outputs": [],
      "payable": false,
      "stateMutability": "nonpayable",
      "type": "function"
    },
    {
      "constant": false,
      "inputs": [
        {
          "name": "from",
          "type": "address"
        },
        {
          "name": "to",
          "type": "address"
        },
        {
          "name": "tokenId",
          "type": "uint256"
        }
      ],
      "name": "transferFrom",
      "outputs": [],
      "payable": false,
      "stateMutability": "nonpayable",
      "type": "function"
    },
    {
      "constant": true,
      "inputs": [
        {
          "name": "",
          "type": "uint256"
        }
      ],
      "name": "starCoord",
      "outputs": [
        {
          "name": "",
          "type": "bool"
        }
      ],
      "payable": false,
      "stateMutability": "view",
      "type": "function"
    },
    {
      "constant": false,
      "inputs": [
        {
          "name": "from",
          "type": "address"
        },
        {
          "name": "to",
          "type": "address"
        },
        {
          "name": "tokenId",
          "type": "uint256"
        }
      ],
      "name": "safeTransferFrom",
      "outputs": [],
      "payable": false,
      "stateMutability": "nonpayable",
      "type": "function"
    },
    {
      "constant": true,
      "inputs": [
        {
          "name": "tokenId",
          "type": "uint256"
        }
      ],
      "name": "ownerOf",
      "outputs": [
        {
          "name": "",
          "type": "address"
        }
      ],
      "payable": false,
      "stateMutability": "view",
      "type": "function"
    },
    {
      "constant": true,
      "inputs": [
        {
          "name": "owner",
          "type": "address"
        }
      ],
      "name": "balanceOf",
      "outputs": [
        {
          "name": "",
          "type": "uint256"
        }
      ],
      "payable": false,
      "stateMutability": "view",
      "type": "function"
    },
    {
      "constant": false,
      "inputs": [
        {
          "name": "to",
          "type": "address"
        },
        {
          "name": "approved",
          "type": "bool"
        }
      ],
      "name": "setApprovalForAll",
      "outputs": [],
      "payable": false,
      "stateMutability": "nonpayable",
      "type": "function"
    },
    {
      "constant": false,
      "inputs": [
        {
          "name": "from",
          "type": "address"
        },
        {
          "name": "to",
          "type": "address"
        },
        {
          "name": "tokenId",
          "type": "uint256"
        },
        {
          "name": "_data",
          "type": "bytes"
        }
      ],
      "name": "safeTransferFrom",
      "outputs": [],
      "payable": false,
      "stateMutability": "nonpayable",
      "type": "function"
    },
    {
      "constant": true,
      "inputs": [
        {
          "name": "owner",
          "type": "address"
        },
        {
          "name": "operator",
          "type": "address"
        }
      ],
      "name": "isApprovedForAll",
      "outputs": [
        {
          "name": "",
          "type": "bool"
        }
      ],
      "payable": false,
      "stateMutability": "view",
      "type": "function"
    },
    {
      "anonymous": false,
      "inputs": [
        {
          "indexed": true,
          "name": "from",
          "type": "address"
        },
        {
          "indexed": true,
          "name": "to",
          "type": "address"
        },
        {
          "indexed": true,
          "name": "tokenId",
          "type": "uint256"
        }
      ],
      "name": "Transfer",
      "type": "event"
    },
    {
      "anonymous": false,
      "inputs": [
        {
          "indexed": true,
          "name": "owner",
          "type": "address"
        },
        {
          "indexed": true,
          "name": "approved",
          "type": "address"
        },
        {
          "indexed": true,
          "name": "tokenId",
          "type": "uint256"
        }
      ],
      "name": "Approval",
      "type": "event"
    },
    {
      "anonymous": false,
      "inputs": [
        {
          "indexed": true,
          "name": "owner",
          "type": "address"
        },
        {
          "indexed": true,
          "name": "operator",
          "type": "address"
        },
        {
          "indexed": false,
          "name": "approved",
          "type": "bool"
        }
      ],
      "name": "ApprovalForAll",
      "type": "event"
    },
    {
      "constant": false,
      "inputs": [
        {
          "name": "_tokenId",
          "type": "uint256"
        },
        {
          "name": "_name",
          "type": "string"
        },
        {
          "name": "_story",
          "type": "string"
        },
        {
          "name": "_dec",
          "type": "string"
        },
        {
          "name": "_mag",
          "type": "string"
        },
        {
          "name": "_cent",
          "type": "string"
        }
      ],
      "name": "createStar",
      "outputs": [],
      "payable": false,
      "stateMutability": "nonpayable",
      "type": "function"
    },
    {
      "constant": false,
      "inputs": [
        {
          "name": "_tokenId",
          "type": "uint256"
        },
        {
          "name": "_price",
          "type": "uint256"
        }
      ],
      "name": "putStarUpForSale",
      "outputs": [],
      "payable": false,
      "stateMutability": "nonpayable",
      "type": "function"
    },
    {
      "constant": false,
      "inputs": [
        {
          "name": "_tokenId",
          "type": "uint256"
        }
      ],
      "name": "buyStar",
      "outputs": [],
      "payable": true,
      "stateMutability": "payable",
      "type": "function"
    },
    {
      "constant": true,
      "inputs": [
        {
          "name": "_dec",
          "type": "string"
        },
        {
          "name": "_mag",
          "type": "string"
        },
        {
          "name": "_cent",
          "type": "string"
        }
      ],
      "name": "checkIfStarExist",
      "outputs": [
        {
          "name": "",
          "type": "bool"
        }
      ],
      "payable": false,
      "stateMutability": "view",
      "type": "function"
    },
    {
      "constant": true,
      "inputs": [
        {
          "name": "_tokenId",
          "type": "uint256"
        }
      ],
      "name": "tokenIdToStarInfo",
      "outputs": [
        {
          "name": "",
          "type": "string"
        },
        {
          "name": "",
          "type": "string"
        },
        {
          "name": "",
          "type": "string"
        },
        {
          "name": "",
          "type": "string"
        },
        {
          "name": "",
          "type": "string"
        }
      ],
      "payable": false,
      "stateMutability": "view",
      "type": "function"
    }
  ],
  "bytecode": "0x6080604052620000416301ffc9a77c01000000000000000000000000000000000000000000000000000000000262000084640100000000026401000000009004565b6200007e6380ac58cd7c01000000000000000000000000000000000000000000000000000000000262000084640100000000026401000000009004565b62000142565b63ffffffff7c010000000000000000000000000000000000000000000000000000000002817bffffffffffffffffffffffffffffffffffffffffffffffffffffffff191614151515620000d657600080fd5b6001600080837bffffffffffffffffffffffffffffffffffffffffffffffffffffffff19167bffffffffffffffffffffffffffffffffffffffffffffffffffffffff1916815260200190815260200160002060006101000a81548160ff02191690831515021790555050565b6125b580620001526000396000f3006080604052600436106100f1576000357c0100000000000000000000000000000000000000000000000000000000900463ffffffff16806301ffc9a7146100f65780630384153d1461015a5780630564b13014610267578063081812fc146102a8578063095ea7b3146103155780631967fd981461036257806323b872dd146105b85780632f1c34ef14610625578063316a4361146106455780633e1548641461067c57806342842e0e146106c15780636352211e1461072e57806370a082311461079b578063a22cb465146107f2578063b88d4fde14610841578063e985e9c5146108f4578063f0da0b531461096f575b600080fd5b34801561010257600080fd5b5061014060048036038101908080357bffffffffffffffffffffffffffffffffffffffffffffffffffffffff19169060200190929190505050610afa565b604051808215151515815260200191505060405180910390f35b34801561016657600080fd5b5061024d600480360381019080803590602001908201803590602001908080601f0160208091040260200160405190810160405280939291908181526020018383808284378201915050505050509192919290803590602001908201803590602001908080601f0160208091040260200160405190810160405280939291908181526020018383808284378201915050505050509192919290803590602001908201803590602001908080601f0160208091040260200160405190810160405280939291908181526020018383808284378201915050505050509192919290505050610b61565b604051808215151515815260200191505060405180910390f35b34801561027357600080fd5b5061029260048036038101908080359060200190929190505050610c8e565b6040518082815260200191505060405180910390f35b3480156102b457600080fd5b506102d360048036038101908080359060200190929190505050610ca6565b604051808273ffffffffffffffffffffffffffffffffffffffff1673ffffffffffffffffffffffffffffffffffffffff16815260200191505060405180910390f35b34801561032157600080fd5b50610360600480360381019080803573ffffffffffffffffffffffffffffffffffffffff16906020019092919080359060200190929190505050610cf7565b005b34801561036e57600080fd5b5061038d60048036038101908080359060200190929190505050610e3c565b60405180806020018060200180602001806020018060200186810386528b818151815260200191508051906020019080838360005b838110156103dd5780820151818401526020810190506103c2565b50505050905090810190601f16801561040a5780820380516001836020036101000a031916815260200191505b5086810385528a818151815260200191508051906020019080838360005b83811015610443578082015181840152602081019050610428565b50505050905090810190601f1680156104705780820380516001836020036101000a031916815260200191505b50868103845289818151815260200191508051906020019080838360005b838110156104a957808201518184015260208101905061048e565b50505050905090810190601f1680156104d65780820380516001836020036101000a031916815260200191505b50868103835288818151815260200191508051906020019080838360005b8381101561050f5780820151818401526020810190506104f4565b50505050905090810190601f16801561053c5780820380516001836020036101000a031916815260200191505b50868103825287818151815260200191508051906020019080838360005b8381101561057557808201518184015260208101905061055a565b50505050905090810190601f1680156105a25780820380516001836020036101000a031916815260200191505b509a505050505050505050505060405180910390f35b3480156105c457600080fd5b50610623600480360381019080803573ffffffffffffffffffffffffffffffffffffffff169060200190929190803573ffffffffffffffffffffffffffffffffffffffff169060200190929190803590602001909291905050506111d1565b005b610643600480360381019080803590602001909291905050506112a0565b005b34801561065157600080fd5b5061067a6004803603810190808035906020019092919080359060200190929190505050611448565b005b34801561068857600080fd5b506106a760048036038101908080359060200190929190505050611547565b604051808215151515815260200191505060405180910390f35b3480156106cd57600080fd5b5061072c600480360381019080803573ffffffffffffffffffffffffffffffffffffffff169060200190929190803573ffffffffffffffffffffffffffffffffffffffff16906020019092919080359060200190929190505050611567565b005b34801561073a57600080fd5b5061075960048036038101908080359060200190929190505050611588565b604051808273ffffffffffffffffffffffffffffffffffffffff1673ffffffffffffffffffffffffffffffffffffffff16815260200191505060405180910390f35b3480156107a757600080fd5b506107dc600480360381019080803573ffffffffffffffffffffffffffffffffffffffff169060200190929190505050611606565b6040518082815260200191505060405180910390f35b3480156107fe57600080fd5b5061083f600480360381019080803573ffffffffffffffffffffffffffffffffffffffff16906020019092919080351515906020019092919050505061168a565b005b34801561084d57600080fd5b506108f2600480360381019080803573ffffffffffffffffffffffffffffffffffffffff169060200190929190803573ffffffffffffffffffffffffffffffffffffffff16906020019092919080359060200190929190803590602001908201803590602001908080601f01602080910402602001604051908101604052809392919081815260200183838082843782019150505050505091929192905050506117c6565b005b34801561090057600080fd5b50610955600480360381019080803573ffffffffffffffffffffffffffffffffffffffff169060200190929190803573ffffffffffffffffffffffffffffffffffffffff1690602001909291905050506117ee565b604051808215151515815260200191505060405180910390f35b34801561097b57600080fd5b50610af860048036038101908080359060200190929190803590602001908201803590602001908080601f0160208091040260200160405190810160405280939291908181526020018383808284378201915050505050509192919290803590602001908201803590602001908080601f0160208091040260200160405190810160405280939291908181526020018383808284378201915050505050509192919290803590602001908201803590602001908080601f0160208091040260200160405190810160405280939291908181526020018383808284378201915050505050509192919290803590602001908201803590602001908080601f0160208091040260200160405190810160405280939291908181526020018383808284378201915050505050509192919290803590602001908201803590602001908080601f0160208091040260200160405190810160405280939291908181526020018383808284378201915050505050509192919290505050611882565b005b6000806000837bffffffffffffffffffffffffffffffffffffffffffffffffffffffff19167bffffffffffffffffffffffffffffffffffffffffffffffffffffffff1916815260200190815260200160002060009054906101000a900460ff169050919050565b600080610b77610b718686611b31565b84611b31565b6040516020018082805190602001908083835b602083101515610baf5780518252602082019150602081019050602083039250610b8a565b6001836020036101000a0380198251168184511680821785525050505050509050019150506040516020818303038152906040526040518082805190602001908083835b602083101515610c185780518252602082019150602081019050602083039250610bf3565b6001836020036101000a0380198251168184511680821785525050505050509050019150506040518091039020600190049050600115156007600083815260200190815260200160002060009054906101000a900460ff1615151415610c815760019150610c86565b600091505b509392505050565b60066020528060005260406000206000915090505481565b6000610cb182611d04565b1515610cbc57600080fd5b6002600083815260200190815260200160002060009054906101000a900473ffffffffffffffffffffffffffffffffffffffff169050919050565b6000610d0282611588565b90508073ffffffffffffffffffffffffffffffffffffffff168373ffffffffffffffffffffffffffffffffffffffff1614151515610d3f57600080fd5b8073ffffffffffffffffffffffffffffffffffffffff163373ffffffffffffffffffffffffffffffffffffffff161480610d7f5750610d7e81336117ee565b5b1515610d8a57600080fd5b826002600084815260200190815260200160002060006101000a81548173ffffffffffffffffffffffffffffffffffffffff021916908373ffffffffffffffffffffffffffffffffffffffff160217905550818373ffffffffffffffffffffffffffffffffffffffff168273ffffffffffffffffffffffffffffffffffffffff167f8c5be1e5ebec7d5bd14f71427d1e84f3dd0314c0f7b2291e5b200ac8c7c3b92560405160405180910390a4505050565b6060806060806060600560008781526020019081526020016000206000016005600088815260200190815260200160002060010160056000898152602001908152602001600020600201600560008a8152602001908152602001600020600301600560008b8152602001908152602001600020600401848054600181600116156101000203166002900480601f016020809104026020016040519081016040528092919081815260200182805460018160011615610100020316600290048015610f475780601f10610f1c57610100808354040283529160200191610f47565b820191906000526020600020905b815481529060010190602001808311610f2a57829003601f168201915b50505050509450838054600181600116156101000203166002900480601f016020809104026020016040519081016040528092919081815260200182805460018160011615610100020316600290048015610fe35780601f10610fb857610100808354040283529160200191610fe3565b820191906000526020600020905b815481529060010190602001808311610fc657829003601f168201915b50505050509350828054600181600116156101000203166002900480601f01602080910402602001604051908101604052809291908181526020018280546001816001161561010002031660029004801561107f5780601f106110545761010080835404028352916020019161107f565b820191906000526020600020905b81548152906001019060200180831161106257829003601f168201915b50505050509250818054600181600116156101000203166002900480601f01602080910402602001604051908101604052809291908181526020018280546001816001161561010002031660029004801561111b5780601f106110f05761010080835404028352916020019161111b565b820191906000526020600020905b8154815290600101906020018083116110fe57829003601f168201915b50505050509150808054600181600116156101000203166002900480601f0160208091040260200160405190810160405280929190818152602001828054600181600116156101000203166002900480156111b75780601f1061118c576101008083540402835291602001916111b7565b820191906000526020600020905b81548152906001019060200180831161119a57829003601f168201915b505050505090509450945094509450945091939590929450565b6111db3382611d76565b15156111e657600080fd5b600073ffffffffffffffffffffffffffffffffffffffff168273ffffffffffffffffffffffffffffffffffffffff161415151561122257600080fd5b61122c8382611e0b565b6112368382611f0e565b611240828261203d565b808273ffffffffffffffffffffffffffffffffffffffff168473ffffffffffffffffffffffffffffffffffffffff167fddf252ad1be2c89b69c2b068fc378daa952ba7f163c4a11628f55a4df523b3ef60405160405180910390a4505050565b600080600060066000858152602001908152602001600020541115156112c557600080fd5b600660008481526020019081526020016000205491503073ffffffffffffffffffffffffffffffffffffffff16636352211e846040518263ffffffff167c010000000000000000000000000000000000000000000000000000000002815260040180828152602001915050602060405180830381600087803b15801561134a57600080fd5b505af115801561135e573d6000803e3d6000fd5b505050506040513d602081101561137457600080fd5b8101908080519060200190929190505050905081341015151561139657600080fd5b6113a08184611f0e565b6113aa338461203d565b8073ffffffffffffffffffffffffffffffffffffffff166108fc839081150290604051600060405180830381858888f193505050501580156113f0573d6000803e3d6000fd5b5081341115611443573373ffffffffffffffffffffffffffffffffffffffff166108fc8334039081150290604051600060405180830381858888f19350505050158015611441573d6000803e3d6000fd5b505b505050565b3373ffffffffffffffffffffffffffffffffffffffff163073ffffffffffffffffffffffffffffffffffffffff16636352211e846040518263ffffffff167c010000000000000000000000000000000000000000000000000000000002815260040180828152602001915050602060405180830381600087803b1580156114ce57600080fd5b505af11580156114e2573d6000803e3d6000fd5b505050506040513d60208110156114f857600080fd5b810190808051906020019092919050505073ffffffffffffffffffffffffffffffffffffffff1614151561152b57600080fd5b8060066000848152602001908152602001600020819055505050565b60076020528060005260406000206000915054906101000a900460ff1681565b61158383838360206040519081016040528060008152506117c6565b505050565b6000806001600084815260200190815260200160002060009054906101000a900473ffffffffffffffffffffffffffffffffffffffff169050600073ffffffffffffffffffffffffffffffffffffffff168173ffffffffffffffffffffffffffffffffffffffff16141515156115fd57600080fd5b80915050919050565b60008073ffffffffffffffffffffffffffffffffffffffff168273ffffffffffffffffffffffffffffffffffffffff161415151561164357600080fd5b600360008373ffffffffffffffffffffffffffffffffffffffff1673ffffffffffffffffffffffffffffffffffffffff168152602001908152602001600020549050919050565b3373ffffffffffffffffffffffffffffffffffffffff168273ffffffffffffffffffffffffffffffffffffffff16141515156116c557600080fd5b80600460003373ffffffffffffffffffffffffffffffffffffffff1673ffffffffffffffffffffffffffffffffffffffff16815260200190815260200160002060008473ffffffffffffffffffffffffffffffffffffffff1673ffffffffffffffffffffffffffffffffffffffff16815260200190815260200160002060006101000a81548160ff0219169083151502179055508173ffffffffffffffffffffffffffffffffffffffff163373ffffffffffffffffffffffffffffffffffffffff167f17307eab39ab6107e8899845ad3d59bd9653f200f220920489ca2b5937696c3183604051808215151515815260200191505060405180910390a35050565b6117d18484846111d1565b6117dd84848484612197565b15156117e857600080fd5b50505050565b6000600460008473ffffffffffffffffffffffffffffffffffffffff1673ffffffffffffffffffffffffffffffffffffffff16815260200190815260200160002060008373ffffffffffffffffffffffffffffffffffffffff1673ffffffffffffffffffffffffffffffffffffffff16815260200190815260200160002060009054906101000a900460ff16905092915050565b61188a6124b4565b600060a060405190810160405280888152602001878152602001868152602001858152602001848152509150600015156118c5868686610b61565b1515141515611962576040517f08c379a00000000000000000000000000000000000000000000000000000000081526004018080602001828103825260368152602001807f54686973207374617220616c72656164792065786973742e20506c656173652081526020017f637265617465206120646966666572656e74206f6e650000000000000000000081525060400191505060405180910390fd5b61197561196f8686611b31565b84611b31565b6040516020018082805190602001908083835b6020831015156119ad5780518252602082019150602081019050602083039250611988565b6001836020036101000a0380198251168184511680821785525050505050509050019150506040516020818303038152906040526040518082805190602001908083835b602083101515611a1657805182526020820191506020810190506020830392506119f1565b6001836020036101000a038019825116818451168082178552505050505050905001915050604051809103902060019004905060016007600083815260200190815260200160002060006101000a81548160ff02191690831515021790555081600560008a81526020019081526020016000206000820151816000019080519060200190611aa59291906124e4565b506020820151816001019080519060200190611ac29291906124e4565b506040820151816002019080519060200190611adf9291906124e4565b506060820151816003019080519060200190611afc9291906124e4565b506080820151816004019080519060200190611b199291906124e4565b50905050611b2733896123b9565b5050505050505050565b606080606080606060008088955087945084518651016040519080825280601f01601f191660200182016040528015611b795781602001602082028038833980820191505090505b509350839250600091505b8551821015611c37578582815181101515611b9b57fe5b9060200101517f010000000000000000000000000000000000000000000000000000000000000090047f0100000000000000000000000000000000000000000000000000000000000000028382806001019350815181101515611bfa57fe5b9060200101907effffffffffffffffffffffffffffffffffffffffffffffffffffffffffffff1916908160001a9053508180600101925050611b84565b600091505b8451821015611cf5578482806001019350815181101515611c5957fe5b9060200101517f010000000000000000000000000000000000000000000000000000000000000090047f0100000000000000000000000000000000000000000000000000000000000000028382806001019350815181101515611cb857fe5b9060200101907effffffffffffffffffffffffffffffffffffffffffffffffffffffffffffff1916908160001a9053508180600101925050611c3c565b82965050505050505092915050565b6000806001600084815260200190815260200160002060009054906101000a900473ffffffffffffffffffffffffffffffffffffffff169050600073ffffffffffffffffffffffffffffffffffffffff168173ffffffffffffffffffffffffffffffffffffffff161415915050919050565b600080611d8283611588565b90508073ffffffffffffffffffffffffffffffffffffffff168473ffffffffffffffffffffffffffffffffffffffff161480611df157508373ffffffffffffffffffffffffffffffffffffffff16611dd984610ca6565b73ffffffffffffffffffffffffffffffffffffffff16145b80611e025750611e0181856117ee565b5b91505092915050565b8173ffffffffffffffffffffffffffffffffffffffff16611e2b82611588565b73ffffffffffffffffffffffffffffffffffffffff16141515611e4d57600080fd5b600073ffffffffffffffffffffffffffffffffffffffff166002600083815260200190815260200160002060009054906101000a900473ffffffffffffffffffffffffffffffffffffffff1673ffffffffffffffffffffffffffffffffffffffff16141515611f0a5760006002600083815260200190815260200160002060006101000a81548173ffffffffffffffffffffffffffffffffffffffff021916908373ffffffffffffffffffffffffffffffffffffffff1602179055505b5050565b8173ffffffffffffffffffffffffffffffffffffffff16611f2e82611588565b73ffffffffffffffffffffffffffffffffffffffff16141515611f5057600080fd5b611fa36001600360008573ffffffffffffffffffffffffffffffffffffffff1673ffffffffffffffffffffffffffffffffffffffff1681526020019081526020016000205461245f90919063ffffffff16565b600360008473ffffffffffffffffffffffffffffffffffffffff1673ffffffffffffffffffffffffffffffffffffffff1681526020019081526020016000208190555060006001600083815260200190815260200160002060006101000a81548173ffffffffffffffffffffffffffffffffffffffff021916908373ffffffffffffffffffffffffffffffffffffffff1602179055505050565b600073ffffffffffffffffffffffffffffffffffffffff166001600083815260200190815260200160002060009054906101000a900473ffffffffffffffffffffffffffffffffffffffff1673ffffffffffffffffffffffffffffffffffffffff161415156120ab57600080fd5b816001600083815260200190815260200160002060006101000a81548173ffffffffffffffffffffffffffffffffffffffff021916908373ffffffffffffffffffffffffffffffffffffffff1602179055506121506001600360008573ffffffffffffffffffffffffffffffffffffffff1673ffffffffffffffffffffffffffffffffffffffff1681526020019081526020016000205461248090919063ffffffff16565b600360008473ffffffffffffffffffffffffffffffffffffffff1673ffffffffffffffffffffffffffffffffffffffff168152602001908152602001600020819055505050565b6000806121b98573ffffffffffffffffffffffffffffffffffffffff166124a1565b15156121c857600191506123b0565b8473ffffffffffffffffffffffffffffffffffffffff1663150b7a02338887876040518563ffffffff167c0100000000000000000000000000000000000000000000000000000000028152600401808573ffffffffffffffffffffffffffffffffffffffff1673ffffffffffffffffffffffffffffffffffffffff1681526020018473ffffffffffffffffffffffffffffffffffffffff1673ffffffffffffffffffffffffffffffffffffffff16815260200183815260200180602001828103825283818151815260200191508051906020019080838360005b838110156122bd5780820151818401526020810190506122a2565b50505050905090810190601f1680156122ea5780820380516001836020036101000a031916815260200191505b5095505050505050602060405180830381600087803b15801561230c57600080fd5b505af1158015612320573d6000803e3d6000fd5b505050506040513d602081101561233657600080fd5b8101908080519060200190929190505050905063150b7a027c0100000000000000000000000000000000000000000000000000000000027bffffffffffffffffffffffffffffffffffffffffffffffffffffffff1916817bffffffffffffffffffffffffffffffffffffffffffffffffffffffff19161491505b50949350505050565b600073ffffffffffffffffffffffffffffffffffffffff168273ffffffffffffffffffffffffffffffffffffffff16141515156123f557600080fd5b6123ff828261203d565b808273ffffffffffffffffffffffffffffffffffffffff16600073ffffffffffffffffffffffffffffffffffffffff167fddf252ad1be2c89b69c2b068fc378daa952ba7f163c4a11628f55a4df523b3ef60405160405180910390a45050565b60008083831115151561247157600080fd5b82840390508091505092915050565b600080828401905083811015151561249757600080fd5b8091505092915050565b600080823b905060008111915050919050565b60a06040519081016040528060608152602001606081526020016060815260200160608152602001606081525090565b828054600181600116156101000203166002900490600052602060002090601f016020900481019282601f1061252557805160ff1916838001178555612553565b82800160010185558215612553579182015b82811115612552578251825591602001919060010190612537565b5b5090506125609190612564565b5090565b61258691905b8082111561258257600081600090555060010161256a565b5090565b905600a165627a7a723058203a02415eb5e3e5ef963a8e714b589d9fabc334091210e06dd67364ef1046d06d0029",
  "source": "pragma solidity ^0.4.23;\n\nimport 'openzeppelin-solidity/contracts/token/ERC721/ERC721.sol';\n\ncontract StarNotary is ERC721 { \n\n    struct Star { \n        string name;\n        string story;\n        string dec; \n        string mag;\n        string cent;\n    }\n\n    mapping(uint256 => Star) public tokenIdToStarInfo;\n    mapping(uint256 => uint256) public starsForSale;\n    mapping(uint256 => bool) public starCoord;\n\n    function concat(string _a, string _b) internal pure returns (string) {\n        bytes memory _baseBytes = bytes(_a);\n        bytes memory _valueBytes = bytes(_b);\n        string memory _tmpValue = new string(_baseBytes.length + _valueBytes.length);\n        bytes memory _newValue = bytes(_tmpValue);\n        uint i;\n        uint j;\n        for(i = 0; i < _baseBytes.length; i++) {\n            _newValue[j++] = _baseBytes[i];\n        }\n\n        for(i = 0; i < _valueBytes.length; i++) {\n            _newValue[j++] = _valueBytes[i++];\n        }\n\n        return string(_newValue);\n    }\n\n    function createStar(uint256 _tokenId, string _name, string _story, string _dec, string _mag, string _cent) public { \n        Star memory newStar = Star(_name, _story, _dec, _mag, _cent);    \n\n        require(checkIfStarExist(_dec, _mag, _cent) == false, \"This star already exist. Please create a different one\");\n\n        uint256 coords = uint256(keccak256(abi.encodePacked(concat(concat(_dec, _mag), _cent))));\n        starCoord[coords] = true;\n\n        tokenIdToStarInfo[_tokenId] = newStar;\n        _mint(msg.sender, _tokenId);\n    }\n\n\n    function putStarUpForSale(uint256 _tokenId, uint256 _price) public { \n        require(this.ownerOf(_tokenId) == msg.sender);\n\n        starsForSale[_tokenId] = _price;\n    }\n\n    function buyStar(uint256 _tokenId) public payable { \n        require(starsForSale[_tokenId] > 0);\n        \n        uint256 starCost = starsForSale[_tokenId];\n        address starOwner = this.ownerOf(_tokenId);\n        require(msg.value >= starCost);\n\n        _removeTokenFrom(starOwner, _tokenId);\n        _addTokenTo(msg.sender, _tokenId);\n        \n        starOwner.transfer(starCost);\n\n        if(msg.value > starCost) { \n            msg.sender.transfer(msg.value - starCost);\n        }\n    }\n\n    function checkIfStarExist(string _dec, string _mag, string _cent) public view returns (bool) {\n        uint256 coords = uint256(keccak256(abi.encodePacked(concat(concat(_dec, _mag), _cent))));\n        if(starCoord[coords] == true){\n            return true;\n        } else{\n            return false;\n        }  \n    }\n\n    function tokenIdToStarInfo(uint256 _tokenId) public view returns(string, string, string, string, string){\n        return (\n            tokenIdToStarInfo[_tokenId].name, \n            tokenIdToStarInfo[_tokenId].story, \n            tokenIdToStarInfo[_tokenId].dec, \n            tokenIdToStarInfo[_tokenId].mag, \n            tokenIdToStarInfo[_tokenId].cent);\n    }\n\n}",
  "sourcePath": "/home/sandra-emma/Desktop/Project 5: Decentralized Star Notary/smart_contracts/contracts/StarNotary.sol",
  "compiler": {
    "name": "solc",
    "version": "0.4.24+commit.e67f0147.Emscripten.clang"
  },
  "schemaVersion": "2.0.1",
  "updatedAt": "2018-10-20T06:54:28.500Z"
}